:10000000AAC2B9C2B8C2B7C2B6C2B5C28FC3B3C260
:10001000B2C2B1C2B0C298C3AEC2ADC2ACC2ABC272
:10002000AAC212C019C018C017C016C015C014C08B
:1000300013C012C011C010C00FC00EC00DC00CC044
:100040000BC00AC009C008C011241FBECFE5D4E010
:10005000DEBFCDBF02D012C0E4CF80E090E006D07A
:1000600081BF88E087BB8AE185BDFFCFE199FECFE4
:100070009FBB8EBBE09A99278DB30895F894FFCF6C
:1000800010C017C016C015C014C013C012C011C0D4
:1000900010C00FC00EC00DC00CC00BC00AC009C0FC
:1000A00008C011241FBECFE5D2E0DEBFCDBF02D015
:1000B00013C0E6CF80E090E007D081BF80E48ABB28
:1000C0008FBD89E08EBDFFCFE199FECF9FBB8EBB78
:1000D000E09A99278DB30895F894FFCF10C015C00A
:1000E00014C013C012C011C010C00FC00EC00DC08C
:1000F0000CC00BC00AC009C008C007C006C011244C
:100100001FBECFEDCDBF02D013C0E8CF80E090E09E
:1001100007D081BF80E48ABB8FBD89E08EBDFFCF51
:10012000E199FECF1FBA8EBBE09A99278DB308954F
:10013000F894FFCF0EC013C012C011C010C00FC082
:100140000EC00DC00CC00BC00AC009C008C007C05B
:1001500006C011241FBECFEDCDBF02D013C0EACF21
:1001600080E090E007D081BF81E087BB92E49ABD38
:1001700083BFFFCFE199FECF1FBA8EBBE09A9927CC
:100180008DB30895F894FFCF09C00EC00DC00CC008
:100190000BC00AC009C008C007C006C011241FBE9A
:1001A000CFE9CDBF02D012C0EFCF80E090E007D002
:1001B00081BF81E087BB92E49FBD83BFFFCFE19900
:1001C000FECF8EBBE09A99278DB30895F894FFCFA8
:1001D000000000000000002F0000000700070014CE
:1001E0007F147F14242A7F2A12626408132336495D
:1001F0005522500005030000001C2241000041224E
:100200001C0014083E081408083E08080000A060FE
:1002100000080808080800606000002010080402B8
:100220003E5149453E00427F4000426151494621CE
:1002300041454B311814127F1027454545393C4A3A
:10024000494930017109050336494949360649498A
:10025000291E0036360000005636000008142241E0
:100260000014141414140041221408020151090648
:10027000324959513E7C1211127C7F494949363E20
:10028000414141227F4141221C7F494949417F0927
:100290000909013E4149497A7F0808087F00417FEA
:1002A00041002040413F017F081422417F404040EF
:1002B000407F020C027F7F0408107F3E4141413E97
:1002C0007F090909063E4151215E7F0919294646E9
:1002D0004949493101017F01013F4040403F1F2012
:1002E00040201F3F4038403F6314081463070870E4
:1002F000080761514945437C1F0220022002207CEF
:100300001F00000000000000007C1F001F822082F0
:100310002082207C0000008220822082207C1F7CA2
:10032000008000800080007C1F7C00822082208270
:1003300020001F7C1F822082208220001F7C000260
:1003400000020002007C1F7C1F8220822082207C11
:100350001F7C008220822082207C1F7C1F820082E2
:100360000082007C1F7C1F802080208020001F7C5A
:100370001F0220022002200000001F802080208019
:10038000207C1F7C1F82208220822000007C1F8214
:1003900000820082000000FE3F800080008000FE9E
:1003A0003FFE07001800200018FE07FE3F00040073
:1003B0000A001180208031000A0004000A80318088
:1003C000308028802480228021000000300030000E
:1003D00000000000000000000000000000A81F2036
:1003E00001DA028D14AFA1C81027E80364000A00E7
:1003F000010056434320204F534343414C20465273
:10040000455155454E43590043414C494252415490
:10041000494F4E20434F4D504C455445210012103A
:10042000140016161600111616002E2E2E2020204F
:10043000200020202020002043414C4942524154BA
:10044000494E47204F5343204F4620200020204450
:10045000455649434520444554454354454420218D
:10046000202000204552524F522C204E4F205355F1
:1004700050504F52544544200007906AFFFF1048E7
:1004800088018025415454494E59313320200008B9
:100490009162DFFF10543401401F415454494E59BA
:1004A0003235202000069262DFFF20543401401FC5
:1004B000415454494E5934352020000B9362DFFFDC
:1004C00020543401401F415454494E59383520209E
:1004D000000B9162DFFF1058DC00401F415454496B
:1004E0004E593234202000079262DFFF205C8000EA
:1004F000401F415454494E5934342020000C93621B
:10050000DFFF205C8000401F415454494E5938346D
:10051000202000079364DFFF205E2200401F41542B
:100520004D454741382020200020204F5343204391
:10053000414C4942524154494F4E20212020005005
:100540005245535320425554544F4E20544F20533C
:1005500054415254000011241FBECFE5D2E0DEBF4B
:10056000CDBF20E0A0E6B0E001C01D92A937B207E0
:10057000E1F7FBD023C344CD8BB38F728BBB8AB31F
:100580008F728ABB0895D19AD098D198089598E037
:1005900087FF02C0D19801C0D19AD098C895D09A4F
:1005A000880F9150A9F7C895D198D098C895D09A3E
:1005B0000895D19AD09A88E7EACFCF93C82FF9DF70
:1005C00080E0E5DF82E2E3DF8C2FE1DFC23010F074
:1005D00083E001C08C2FDBDF80E0D9DF80E1D7DF53
:1005E0008C2F806BD4DFCFDFC0937800CF9108953C
:1005F0000F931F93CF93DF93909178009230C8F0C0
:10060000E82FEE0FEE0FEE0F880FCE2FC80F80E011
:10061000BEDF80E0BCDFDAE0DC0F11E01C0FEC2F66
:10062000F0E0E950FD4F8491B2DFC12F1D13F5CFEB
:1006300018C090E080978C01000F111F000F111F50
:10064000080F191F80E0A3DFC0E0D0E0F801EC0F35
:10065000FD1FE053FE4F84919ADF2196C530D105EE
:10066000A9F7DF91CF911F910F910895CF93DF9359
:10067000D82FC92F9EDF80E48ADFED2FFC2F8491D5
:10068000EF012196882319F0B3DFFE01F8CFDF9147
:10069000CF9179CFCA9BFECF8FE295E70197F1F713
:1006A00000C00000CA99FECF089598E087FF02C0FD
:1006B000DE9A01C0DE98880F28E02A95F1F7DC9ACF
:1006C00028E02A95F1F7CD998160DC98915071F777
:1006D00008951F93CF93DF93162FD42FC22FE5DFFA
:1006E000812FE3DF8D2FE1DF8C2FDF91CF911F91E1
:1006F000DCCFCF938BB38F728BBB8AB3806D8ABBF9
:10070000D5988FE59AEE0197F1F700C000008CEACA
:10071000CCDF83E5CADF80E0C8DFC82F80E0C5DF1B
:1007200081E0C33509F080E0CF9108951F920F92C8
:100730000FB60F92112413BE1EBC109261000F90D1
:100740000FBE0F901F9018951F920F920FB60F9229
:1007500011248F93809160008F5F809360008F9150
:100760000F900FBE0F901F901895DA9A86E886B901
:1007700081E287B98FE79BEB9BBD8ABD81E089BF92
:1007800082E08CB978948AB38C7F8ABB8BB38C7FE0
:100790008BBB0FDF80E0FBDECDEDD3E0FE0184916B
:1007A000F6DE2196F3E0C83EDF07C1F7ECDE01DF9D
:1007B00080E0EDDE82E2EBDE80E0E9DE83E0E7DE92
:1007C0008FE0E5DE80E1E3DE80EBE1DEDCDEF1DE22
:1007D00080E4DDDEC0E080E0DADE80E0D8DEC1501B
:1007E000D1F7D1DE56E0452E65EF662E6BE2762E10
:1007F0003324339480E0E1DE8FE395E037DF81E05E
:10080000DCDE89E295E032DF45DF73DF80E34DDF38
:1008100080E04BDF81E049DF80E047DFC82F80E3E5
:1008200044DF80E042DF82E040DF80E03EDF2C2FCB
:1008300030E0322F2227A901482BCA0169E774E072
:10084000FB012591349128173907E1F06A5E7F4F4B
:1008500055E069327507A1F78FDE2FEF42E557E0CB
:10086000215040405040E1F700C0000080E0A5DE8C
:1008700083E694E0FBDE81E0A0DE8DE494E0F6DE2A
:1008800009DFB8CF46E150E082E690E07AD180E01F
:1008900094DE87E394E0EADE81E08FDE82E394E099
:1008A000E5DE87DE80E473DECDE6D0E08991882343
:1008B00011F09EDEFBCF67DE8AE294E0D7DE88E3AC
:1008C000F4DE80E0F2DE80E0F0DE80E0EEDE582E46
:1008D00020E040E060E88CEAFCDE8FE295E70197DB
:1008E000F1F700C000002091640040E060EA8CEA6B
:1008F000F0DEE7E9FAE33197F1F700C0000020915C
:10090000650040E068EA8CEAE4DE87E99AE3019753
:10091000F1F700C000002091660040E064EA8CEA34
:10092000D8DEE7E9FAE33197F1F700C00000209044
:1009300067000091680010E00F5F1F4F1595079545
:10094000E0906900F0906A00C0E0D0E0A22CB12CE9
:100950004501F1E08F1A9108F70124914C2F6D2F7A
:1009600080E4B7DEF2E0EF0EF11CF701319724913D
:100970004C2F6D2F88E4ADDE21966401CC22DD2260
:10098000C114D10479F420E04C2F4219CE018A1908
:100990009B09692F8CE49DDE87E99AE30197F1F7C3
:1009A00000C000000C171D07B9F6CD2859F020E053
:1009B000402F60E08CE48DDEE7E9FAE33197F1F750
:1009C00000C00000252D40E060E080EC82DE87E979
:1009D0009AE30197F1F700C00000CEDD9FEFE2E55A
:1009E000F7E09150E040F040E1F700C00000252D15
:1009F0000FEF1FEF309261001092600012BE1DBC1D
:100A00001CBC42E04EBD43BE809161008111FCCF11
:100A100080916000C2B7D0E0D82BD695C795809161
:100A20006B0090916C008C179D0728F4FE01E81B69
:100A3000F90BCF0102C08C1B9D0B8017910708F0AA
:100A40007FC082E0BADD369A3699FECF64B175B1C7
:100A5000C301A0D0162FADDD80E499DD80E01A300F
:100A600018F08F5F1A50FBCFC3DD85E1C1DD812F08
:100A7000BFDD89DD86E294E0F9DD9BDD80E487DD82
:100A800080E0B6DD83E1B4DD852D82958F70B0DD29
:100A9000852D8F70ADDD77DD82E294E0E7DD89DDC5
:100AA00080E475DD08EE13E07E01C12CD12CF80145
:100AB0002591349180E0E216F30630F08F5FE21A60
:100AC000F30ACC24C394F7CFC11003C0F4E0DF12C3
:100AD00086E18EDDD3940E5F1F4F25E0D212E7CF63
:100AE00052DD8EE194E0C2DD00916B0010916C004C
:100AF0000C171D0738F4AE01401B510B8A0109F198
:100B0000CFEF04C00C1B1D0BE1F0C1E0C50DF1DD02
:100B10002C2F40E060E080ECDCDD87E99AE3019770
:100B2000F1F700C0000028DD9FEFE2E5F7E091500B
:100B3000E040F040E1F700C00000252D5C2E5ACFC8
:100B4000522ED7DD252D40E060E080ECC2DD87E944
:100B50009AE30197F1F700C000000EDD9FEFE2E598
:100B6000F7E09150E040F040E1F700C0000080E085
:100B700024DD88E094E07ADD81E01FDD82EF93E000
:100B80007ECEFB01DC0102C005900D924150504029
:100B9000D8F70895AA1BBB1B51E107C0AA1FBB1FB2
:100BA000A617B70710F0A61BB70B881F991F5A95F9
:100BB000A9F780959095BC01CD010895F894FFCFD9
:00000001FF
